{
  "_format": "hh-sol-artifact-1",
  "contractName": "TestReceiver",
  "sourceName": "contracts/TestReceiver.sol",
  "abi": [
    {
      "inputs": [
        {
          "internalType": "uint256",
          "name": "_value",
          "type": "uint256"
        }
      ],
      "name": "setValue",
      "outputs": [],
      "stateMutability": "payable",
      "type": "function"
    },
    {
      "inputs": [],
      "name": "value",
      "outputs": [
        {
          "internalType": "uint256",
          "name": "",
          "type": "uint256"
        }
      ],
      "stateMutability": "view",
      "type": "function"
    },
    {
      "stateMutability": "payable",
      "type": "receive"
    }
  ],
  "bytecode": "0x608060405234801561001057600080fd5b5060bb8061001f6000396000f3fe608060405260043610602a5760003560e01c80633fa4f2451460355780635524107714605b57600080fd5b36603057005b600080fd5b348015604057600080fd5b50604960005481565b60405190815260200160405180910390f35b606b6066366004606d565b600055565b005b600060208284031215607e57600080fd5b503591905056fea26469706673582212206c7bc9379fa55a9cf3d8ad9f610584eca30afed81fc401f54ed24f3937292e6464736f6c63430008130033",
  "linkReferences": {},
  "deployedLinkReferences": {}
}